:09020E00010800010A0F010B0FA9
:10000E00C293C290C291C292C297C294C295C29636
:01001E0022BF
:1001B900D290C291D292C293D294C295D296C2974A
:0101C9002213
:1001CA00C290D291C292D293C294D295C296D29739
:0101DA002202
:1001DB00C290D291D292C293D294C295D296C29728
:0101EB0022F1
:1001EC00D290C291C292D293D294C295D296C29717
:0101FC0022E0
:1001FD00C290C291C292C293C294C295C296C29746
:01020D0022CE
:10019700758921758DFD758BFD758CFF758AA4D2C8
:1001A700A9D28CC2ABD28ED29CC29FD29ED2ACD2E5
:0201B700AF2275
:0800030012000E12019780FEAD
:03000B000201628D
:10016200C0E0C0D0758CFF758AA4E508D3950A500B
:1001720004D2B38002C2B3E508D3950B5004D2B4C3
:100182008002C2B40508E508C394C840037508009C
:05019200D0D0D0E032E6
:03002300020026B2
:10002600C0E0C083C082C0D075D000C00020980355
:100036000200CBC2ACC298859909E509B40A004012
:10004600030200C9900051F828287302006F0200CD
:100056007402007902007E02008302008802009684
:100066000200A40200B20200C01201FD8055120176
:10007600B980501201CA804B1201DB80461201EC96
:100086008041050BE50BC394194035750B1980307B
:10009600150BE50BD394055003750B058022050A55
:1000A600E50AC3940F4003750A0F8014150AE50A82
:1000B600D394055003750A058006750A0F750B0F54
:1000C600750800D2ACD000D0D0D082D083D0E03238
:030000000200D625
:0C00D600787FE4F6D8FD75810B02011D57
:1000E200020003E493A3F8E493A34003F68001F231
:1000F20008DFF48029E493A3F85407240CC8C3331F
:10010200C4540F4420C8834004F456800146F6DFED
:10011200E4800B010204081020408090020EE47E6D
:10012200019360BCA3FF543F30E509541FFEE493E2
:10013200A360010ECF54C025E060A840B8E493A3A9
:10014200FAE493A3F8E493A3C8C582C8CAC583CAD4
:10015200F0A3C8C582C8CAC583CADFE9DEE780BE8C
:0102170000E6
:00000001FF
