:10000E00C293C290C291C292C297C294C295C29636
:01001E0022BF
:10014A00D290C291D292C293D294C295D296C297B9
:01015A002282
:10015B00C290D291C292D293C294D295C296D297A8
:01016B002271
:10016C00C290D291D292C293D294C295D296C29797
:01017C002260
:10017D00D290C291C292D293D294C295D296C29786
:01018D00224F
:10018E00C290C291C292C293C294C295C296C297B5
:01019E00223E
:10012C00D3EF9400EE940040147D6E7C00ED1D70B6
:0D013C00011CED4C70F7EF1F70E61E80E314
:010149002293
:10010C00758921758DFD758BFD758CFF758A8CD26B
:10011C00A9D28CD28ED29CC29FD29ED2ACD2AF220C
:1000260075080E750906E4F50A12000E12010CE5B4
:100036000BB4090050F9900043F8282873020072A7
:1000460002005E02006302006802006D0200770291
:10005600009A0200AA0200C012014A80D212015B75
:1000660080CD12016C80C812017D80C312018E8082
:10007600BE0508E4F50AF50BE508B40F0375090398
:10008600E508B412AA7508117FC87E0012012C7506
:10009600090F809BE4F50B1508F50AE508709075C5
:1000A6000801808B0509E4F50AF50BE5096406608D
:1000B60003020035750905020035E4F50B1509F54F
:0E00C6000AE5096003020035750901020035E4
:03000B000200D41C
:1000D400C0E0C0F0C0D0758CFF758A8CE50AC3956A
:1000E400085004D2B38002C2B3E50AC39509500490
:1000F400D2B48002C2B4050AE50A75F0A08485F082
:080104000AD0D0D0F0D0E032A7
:03002300020003D5
:06000300C29885990B3242
:0300000002019F5B
:0C019F00787FE4F6D8FD75810B02002685
:00000001FF
