:0901DF00010800010B01010A01F5
:10000E00C293C290C291C292C297C294C295C29636
:01001E0022BF
:10018A00D290C291D292C293D294C295D296C29779
:01019A002242
:10019B00C290D291C292D293C294D295C296D29768
:0101AB002231
:1001AC00C290D291D292C293D294C295D296C29757
:0101BC002220
:1001BD00D290C291C292D293D294C295D296C29746
:0101CD00220F
:1001CE00C290C291C292C293C294C295C296C29775
:0101DE0022FE
:10016A00758921758DFD758BFD758CFE758A33D267
:10017A00A9D28CC2ABD28ED29CC29FD29ED2AC22C2
:03001F008F0B2222
:1000B200D2AF12000E12016AE509B4090050F9909C
:1000C20000C8F82828730200E30200E80200ED02EB
:1000D20000F20200F70200FC020103020113020116
:1000E200241201CE80D212018A80CD12019B80C8D7
:1000F2001201AC80C31201BD80BE7F0512001F80B9
:10010200B7E50BD394014004150B8011750B0180E8
:100112000CE50AC394034003750A03050AE4F508D3
:100122008096E50AD394015003750A01150AE4F595
:03013200088085BD
:03002300020003D5
:06000300C2988599093244
:03000B00020135BA
:10013500C0E0C0D0758CFE758A33E508D3950A50AA
:1001450004D2B38002C2B3E508D3950B5004D2A004
:100155008002C2A00508E508C3942840037508007D
:05016500D0D0D0E03213
:03000000020026D5
:0C002600787FE4F6D8FD75810B02006DB8
:100032000200B2E493A3F8E493A34003F68001F232
:1000420008DFF48029E493A3F85407240CC8C333CF
:10005200C4540F4420C8834004F456800146F6DF9E
:10006200E4800B01020408102040809001DFE47E4E
:10007200019360BCA3FF543F30E509541FFEE49393
:10008200A360010ECF54C025E060A840B8E493A35A
:10009200FAE493A3F8E493A3C8C582C8CAC583CA85
:1000A200F0A3C8C582C8CAC583CADFE9DEE780BE3D
:0101E8000016
:00000001FF
