:10000E00C293C290C291C292C297C294C295C29636
:01001E0022BF
:10014700D290C291D292C293D294C295D296C297BC
:010157002285
:10015800C290D291C292D293C294D295C296D297AB
:010168002274
:10016900C290D291D292C293D294C295D296C2979A
:010179002263
:10017A00D290C291C292D293D294C295D296C29789
:01018A002252
:10018B00C290C291C292C293C294C295C296C297B8
:01019B002241
:10012900D3EF9400EE940040147D6E7C00ED1D70B9
:0D013900011CED4C70F7EF1F70E61E80E317
:010146002296
:10010900758921758DFD758BFD758CFF758A8CD26E
:10011900A9D28CD28ED29CC29FD29ED2ACD2AF220F
:10002600E4F508F509F50A12000E120109E50BB40C
:10003600090050F9900041F828287302005C02007C
:100046006102006602006B020070020075020092F7
:100056000200A70200BD12018B80D212014780CD9B
:1000660012015880C812016980C312017A80BEE469
:10007600F50B74052508F508E4F50AE508B414AD92
:100086007FC87E0012012975081380A1E4F50B7460
:10009600FB2508F508E4F50AE50870917508018066
:1000A6008C0509E4F50AF50BE50964066003020010
:1000B60033750905020033E4F50B1509F50AE50960
:0B00C6006003020033750901020033E3
:03000B000200D11F
:1000D100C0E0C0F0C0D0758CFF758A8CE50AC3956D
:1000E100085004D2B38002C2B3E50AC39509500493
:1000F100D2B48002C2B4050AE50A75F0A08485F085
:080101000AD0D0D0F0D0E032AA
:03002300020003D5
:06000300C29885990B3242
:0300000002019C5E
:0C019C00787FE4F6D8FD75810B02002688
:00000001FF
