:06000300010800010900E4
:03001F008F0A2223
:0302BC008F0B2283
:1001A600D2AF12000E7F807E25120283E50912006F
:1001B6002601D90101DD0201E10301E50401E9059A
:1001C60001F00601F40701F80801FC09020310001A
:1001D6000001B27F05800E7F0A800A7F0F80067FAE
:1001E6001480027F1912001F80C27F05800A7F0AD1
:1001F60080067F0F80027F141202BC80AF7F191227
:0402060002BC80A80E
:10000E005389F0438901758CFF758AA3D2A9D28CCE
:01001E0022BF
:1002830075985053890F438920AB07AA06E4F9F800
:100293007F807E70FDFC12020AEFF404F58D858DDC
:0802A3008BC2ABD2ACD28E225B
:03000B0002024EA0
:10024E00C0E0C0D0758CFF758AA3E508D3950A501F
:10025E0004D2A08002C2A00508E508D3950B500475
:10026E00D2B48002C2B4E508C394C8400375080036
:05027E00D0D0D0E032F9
:030023000202AB2B
:1002AB00309808C298859909850999309902C299A5
:0102BB003210
:0300000002011AE0
:0C011A00787FE4F6D8FD75810B020161CE
:10020A00C2D5E830E70FB2D5E4C39BFBE49AFAE41F
:10021A0099F9E498F8EC30E717B2D51202401200C7
:10022A0088E4C39BFBE49AFAE499F9E498F880031A
:10023A0012008830D50DE4C39FFFE49EFEE49DFDC5
:04024A00E49CFC2212
:10002600D083D082F8E4937012740193700DA3A369
:1000360093F8740193F5828883E47374029368607D
:06004600EFA3A3A380DF7D
:100126000201A6E493A3F8E493A34003F68001F248
:1001360008DFF48029E493A3F85407240CC8C333DA
:10014600C4540F4420C8834004F456800146F6DFA9
:10015600E4800B0102040810204080900003E47E36
:10016600019360BCA3FF543F30E509541FFEE4939E
:10017600A360010ECF54C025E060A840B8E493A365
:10018600FAE493A3F8E493A3C8C582C8CAC583CA90
:10019600F0A3C8C582C8CAC583CADFE9DEE780BE48
:0100090000F6
:10004C0075F008758200EF2FFFEE33FECD33CDCC6B
:10005C0033CCC58233C5829BED9AEC99E5829840EE
:10006C000CF582EE9BFEED9AFDEC99FC0FD5F0D6CB
:10007C00E4CEFBE4CDFAE4CCF9A88222B800C1B9F5
:10008C000059BA002DEC8BF084CFCECDFCE5F0CB33
:10009C00F97818EF2FFFEE33FEED33FDEC33FCEB6C
:1000AC0033FB10D703994004EB99FB0FD8E5E4F927
:1000BC00FA227818EF2FFFEE33FEED33FDEC33FC14
:1000CC00C933C910D7059BE99A4007EC9BFCE99A08
:1000DC00F90FD8E0E4C9FAE4CCFB2275F010EF2F4D
:1000EC00FFEE33FEED33FDCC33CCC833C810D7074D
:1000FC009BEC9AE899400AED9BFDEC9AFCE899F888
:0E010C000FD5F0DAE4CDFBE4CCFAE4C8F9221A
:00000001FF
