:10002600E4F508F509F50B12000E12010AE50CB409
:10003600090050F9900041F8282873020070020068
:100046005C02006102006602006B02007502009805
:100056000200A80200BE12016380D212014880CDC0
:1000660012017C80C812019580C31201AE80BE05C4
:1000760008E4F50BF50CE508B40F03750903E5086C
:10008600B412AA7508117FC87E0012012A75090FDD
:10009600809BE4F50C1508F50BE5087090750801D2
:1000A600808B0509E4F50BF50CE50964066003028F
:1000B6000033750905020033E4F50C1509F50BE567
:0C00C600096003020033750901020033D9
:10012A00D3EF9400EE940040147D6E7C00ED1D70B8
:0D013A00011CED4C70F7EF1F70E61E80E316
:010147002295
:10010A00758921758DFD758BFD758CFF758A8CD26D
:10011A00A9D28CD28ED29CC29FD29ED2ACD2AF220E
:10000E00C291C292C293C290C295C296C297C29436
:01001E0022BF
:10016300D2A0D2A3D2A0D2A3C292C293C290C29170
:09017300C296C297C294C2952203
:10014800D2A0D2A3D2A0D2A3C292C292C293C2908A
:0B015800C291C296C297C294C29522C9
:10017C00D2A0D2A3D2A0D2A3C292C293C290C29157
:09018C00C296C297C294C29522EA
:10019500D2A0D2A3D2A0D2A3C292C293C290C2913E
:0901A500C296C297C294C29522D1
:1001AE00C292C293C290C291C296C297C294C29595
:0101BE00221E
:03000B000200D21E
:1000D200C0E0C0F0C0D0758CFF758A8CE50BC3956B
:1000E200085004D2B38002C2B3E50BC39509500491
:1000F200D2B48002C2B4050BE50B75F0A08485F082
:080102000BD0D0D0F0D0E032A8
:03002300020003D5
:06000300C29885990C3241
:030000000201BF3B
:0C01BF00787FE4F6D8FD75810C02002664
:00000001FF
